:020000040800F2
:1000000000500020C1170008E9140008EF14000890
:10001000F5140008FB14000801150008000000009A
:1000200000000000000000000000000007150008AC
:1000300013150008000000001F1500082B1500080C
:10004000091800080918000809180008091800080C
:1000500009180008091800080918000809180008FC
:1000600009180008091800080918000809180008EC
:1000700009180008091800080918000809180008DC
:1000800009180008091800080918000809180008CC
:1000900009180008091800080918000809180008BC
:1000A00009180008091800080918000809180008AC
:1000B000391500080918000809180008091800086F
:1000C000091800080918000809180008091800088C
:1000D000091800080918000809180008091800087C
:1000E0000918000809180008091800080000000095
:1000F0000000000000000000000000000000000000
:0C01000000000000000000005FF808F1A3
:10010C0010B5054C237833B9044B13B10448AFF345
:10011C0000800123237010BD380000200000000077
:10012C005437000808B5034B1BB103490348AFF320
:10013C00008008BD000000003C000020543700087F
:10014C0080B500AF00224FF48061054801F063FEDA
:10015C0001220821034801F05EFE00BF80BD00BFF4
:10016C0000080140000C014080B500AF01220821BD
:10017C00054801F050FE01224FF48061034801F064
:10018C004AFE00BF80BD00BF000C014000080140CA
:10019C0080B500AF00220821054801F03CFE012289
:1001AC004FF48061034801F036FE00BF80BD00BFF4
:1001BC00000C01400008014080B500AF0022202156
:1001CC00044801F028FE01221021024801F023FE10
:1001DC0000BF80BD000C014080B500AF0122102192
:1001EC00044801F018FE01222021024801F013FE00
:1001FC0000BF80BD000C014080B500AF0022102173
:10020C00044801F008FE01222021024801F003FEFF
:10021C0000BF80BD000C014080B500AF002208215A
:10022C000A4801F0F8FD00224FF48061084801F003
:10023C00F2FD00221021054801F0EDFD00222021E5
:10024C00024801F0E8FD00BF80BD00BF000C01407A
:10025C000008014080B500AF064B1B68012B05D18F
:10026C00FFF796FF034B00221A6002E0014B0122BC
:10027C001A6080BD6400002080B500AF064B1B687F
:10028C00012B05D1FFF770FF034B00221A6002E02F
:10029C00014B01221A6080BD6400002080B500AFC4
:1002AC00064B1B68012B05D1FFF74AFF034B0022BD
:1002BC001A6002E0014B01221A6080BD640000202C
:1002CC0080B500AF064B1B68012B05D1FFF794FFDF
:1002DC00034B00221A6002E0014B01221A6080BD20
:1002EC006800002080B500AF064B1B68012B05D1C0
:1002FC00FFF772FF034B00221A6002E0014B012250
:10030C001A6080BD6800002080B500AF064B1B68EA
:10031C00012B05D1FFF750FF034B00221A6002E0BE
:10032C00014B01221A6080BD6800002080B500AF2F
:10033C00934B1B68013B112B00F2178101A252F861
:10034C0023F000BF99030008B5030008D30400088C
:10035C0045040008770500087705000877050008B4
:10036C007705000877050008770500087705000871
:10037C007705000877050008770500087705000861
:10038C00770500087705000861050008FFF700FFF6
:10039C007B4B02221A607B4B1B68184601F0D6F887
:1003AC00642001F0FBF8E9E0FFF7F2FE01F0F0F950
:1003BC000346002B07D0642001F0F0F8724B1B6849
:1003CC00013B714A136001F0BFF90346012B14D1B4
:1003DC006E4B1B68184601F0B9F8694B04221A6081
:1003EC00642001F0DBF8694B1B68694A82FB03123D
:1003FC005211DB17D31A644A1360002000F072FD0F
:10040C000346002B00F0B380FFF706FF5C4B122273
:10041C001A60604B12221A605F4B0C221A6001F0BA
:10042C00D1F801F0DFF801F0EDF8642001F08EF85E
:10043C005A4B15221A609AE0FFF782FE01F0A8F9D8
:10044C000346002B07D0642001F0A8F84E4B1B6824
:10045C00013B4D4A136001F077F90346012B14D18F
:10046C004F4B1B68184601F071F8454B03221A607C
:10047C00642001F093F84A4B1B68454A82FB031237
:10048C005211DB17D31A404A1360002000F02AFDEA
:10049C000346002B6DD0FFF7BFFE394B12221A60BA
:1004AC003C4B12221A603C4B0C221A6001F08AF869
:1004BC0001F098F801F0A6F8642001F047F8374BEA
:1004CC0015221A6055E0FFF74FFE01F061F9034663
:1004DC00002B07D0642001F061F82B4B1B68013B0B
:1004EC00294A136001F030F90346012B14D1254B36
:1004FC001B68184601F02AF8214B02221A6064206E
:10050C0001F04CF81F4B1B68214A82FB031252115D
:10051C00DB17D31A1C4A1360002000F0E3FC0346DF
:10052C00002B28D0FFF778FE154B12221A60194BBE
:10053C0012221A60184B0C221A6001F043F801F0D9
:10054C0051F801F05FF8642001F000F8134B15220C
:10055C001A6010E0134B1B68002B0ED0114B0022BD
:10056C001A60074B01221A6007E000BF06E000BFCB
:10057C0004E000BF02E000BF00E000BF00BF80BD90
:10058C00000000200C00002054000020140000206B
:10059C001F85EB51040000200800002028000020DB
:1005AC00100000205C00002080B500AF534B1B688E
:1005BC00013B112B00F2968001A252F823F000BFF0
:1005CC00150600083F060008A70600087306000879
:1005DC00F1060008F1060008F1060008F106000813
:1005EC00F1060008F1060008F1060008F106000803
:1005FC00F1060008F1060008F1060008F1060008F3
:10060C00F1060008DB060008FFF7D6FD3B4B042281
:10061C001A603B4B1B68184600F0ACFF384B1B684C
:10062C00384A82FB03125211DB17D31A364A136075
:10063C0061E0FFF7E1FD01F099F80346012B53D17E
:10064C002F4B1B68184600F095FF2C4B04221A60A8
:10065C002B4B1B682B4A82FB03125211DB17D31A4C
:10066C00294A136040E0FFF7A7FD01F07FF803462D
:10067C00012B3BD1254B1B68184600F07BFF1F4B11
:10068C0003221A60214B1B681E4A82FB0312521173
:10069C00DB17D31A1C4A136028E0FFF79DFD01F00D
:1006AC0065F80346012B23D1194B1B68184600F043
:1006BC0061FF124B02221A60154B1B68114A82FB18
:1006CC0003125211DB17D31A0F4A136010E0114BAF
:1006DC001B68002B0ED0094B01221A600D4B002217
:1006EC001A6007E000BF06E000BF04E000BF02E0B4
:1006FC0000BF00E000BF00BF80BD00BF04000020B1
:10070C00200000201F85EB51580000201C00002009
:10071C00180000206000002080B500AF844B1B68DF
:10072C000C3B062B00F20B8301A252F823F000BF06
:10073C00590700084B08000855090008470A00082B
:10074C00510B0008430C00084B0D000800F0FCFF97
:10075C000346002B14D0322000F0F8FEFFF75CFDAE
:10076C00744B1B680133734A1360724B1B68022B6A
:10077C0004DD704B00221A60FFF7A2FDFFF76AFD43
:10078C00032000F0AFFB0346002B0ED0FFF744FD17
:10079C00694B1B68642202FB03F3684A1360664BC7
:1007AC0001221A60624B0D221A60012000F09AFBA4
:1007BC000346002B05D1012000F0B4FB0346002BAF
:1007CC0015D05D4B1B685A1C5D4B83FB02135911F2
:1007DC00D317CB1A642101FB03F3D31A564A1360C7
:1007EC00554B1B68002B02D1534B01221A6002207F
:1007FC0000F078FB0346002B05D1022000F092FBA1
:10080C000346002B0BD04C4B1B68013B4A4A136030
:10081C00494B1B68002B02D1474B63221A60002006
:10082C0000F060FB0346002B00F08B82FFF7F4FC1A
:10083C00414B01221A603E4B0D221A6081E200F0FE
:10084C0083FF0346002B14D0322000F07FFEFFF70D
:10085C00E3FCFFF711FD374B1B680133354A13607E
:10086C00344B1B68022B04DD324B00221A60FFF75D
:10087C0039FD032000F036FB0346002B0ED0FFF7AA
:10088C00CBFC2D4B1B68642202FB03F32D4A136037
:10089C00294B01221A60264B0E221A60012000F00F
:1008AC0021FB0346002B05D1012000F03BFB034646
:1008BC00002B15D0204B1B685A1C214B83FB0213B9
:1008CC005911D317CB1A642101FB03F3D31A1A4A1B
:1008DC001360194B1B68002B02D1174B01221A60B5
:1008EC00022000F0FFFA0346002B05D1022000F095
:1008FC0019FB0346002B0BD00F4B1B68013B0E4A18
:10090C0013600D4B1B68002B02D10B4B63221A603A
:10091C00002000F0E7FA0346002B00F01482FFF7EA
:10092C007BFC054B01221A60014B0E221A600AE275
:10093C00080000206C000020240000200C00002087
:10094C001F85EB511000002000F0FEFE0346002B2B
:10095C0014D0322000F0FAFDFFF75EFCFFF79EFC8E
:10096C00724B1B680133714A1360704B1B68022B6E
:10097C0004DD6E4B00221A60FFF7C6FC032000F06A
:10098C00B1FA0346002B0ED0FFF746FC684B1B68F0
:10099C00642202FB03F3674A1360654B01221A6061
:1009AC00654B0F221A60012000F09CFA0346002BC5
:1009BC0005D1012000F0B6FA0346002B15D05C4B94
:1009CC001B685A1C5D4B83FB02135911D317CB1AAE
:1009DC00642101FB03F3D31A554A1360544B1B6873
:1009EC00002B02D1524B01221A60022000F07AFA3D
:1009FC000346002B05D1022000F094FA0346002B8D
:100A0C000BD04B4B1B68013B494A1360484B1B688E
:100A1C00002B02D1464B63221A60002000F062FAD0
:100A2C000346002B00F09181FFF7F6FB404B0122AF
:100A3C001A60414B0F221A6087E100F085FE0346D5
:100A4C00002B14D0322000F081FDFFF7E5FBFFF7FF
:100A5C0037FC364B1B680133344A1360334B1B682D
:100A6C00022B04DD314B00221A60FFF7F3FB03204D
:100A7C0000F038FA0346002B0ED0FFF7CDFB2C4BC1
:100A8C001B68642202FB03F32D4A1360284B0122DE
:100A9C001A60294B10221A60012000F023FA034639
:100AAC00002B05D1012000F03DFA0346002B15D098
:100ABC001F4B1B685A1C214B83FB02135911D31774
:100ACC00CB1A642101FB03F3D31A194A1360184B98
:100ADC001B68002B02D1164B01221A60022000F079
:100AEC0001FA0346002B05D1022000F01BFA034645
:100AFC00002B0BD00E4B1B68013B0D4A13600C4BAB
:100B0C001B68002B02D10A4B63221A60002000F0F4
:100B1C00E9F90346002B00F01A81FFF77DFB044B2B
:100B2C0001221A60044B10221A6010E16C000020A4
:100B3C002400002014000020080000201F85EB5129
:100B4C001800002000F000FE0346002B14D03220C9
:100B5C0000F0FCFCFFF760FBFFF7C4FB7F4B1B684E
:100B6C0001337E4A13607D4B1B68022B04DD7B4BEB
:100B7C0000221A60FFF780FB032000F0B3F9034654
:100B8C00002B0ED0FFF748FB754B1B68642202FB51
:100B9C0003F3744A1360724B01221A60724B1122D8
:100BAC001A60012000F09EF90346002B05D10120AC
:100BBC0000F0B8F90346002B15D0694B1B685A1C82
:100BCC006A4B83FB02135911D317CB1A642101FB17
:100BDC0003F3D31A624A1360614B1B68002B02D1DA
:100BEC005F4B01221A60022000F07CF90346002BB7
:100BFC0005D1022000F096F90346002B0BD0584B80
:100C0C001B68013B564A1360554B1B68002B02D1E5
:100C1C00534B63221A60002000F064F90346002B4A
:100C2C0000F09780FFF7F8FA4D4B01221A604E4BFB
:100C3C0011221A608DE000F087FD0346002B14D0C2
:100C4C00322000F083FCFFF7E7FAFFF75DFB434B24
:100C5C001B680133414A1360404B1B68022B04DDB7
:100C6C003E4B00221A60FFF719FB032000F03AF903
:100C7C000346002B14D0FFF7CFFA394B1B686422C4
:100C8C0002FB03F33A4A1360354B01221A60394BCD
:100C9C0001221A60384B01221A60334B12221A605F
:100CAC00012000F01FF90346002B05D1012000F0B4
:100CBC0039F90346002B15D0294B1B685A1C2B4BBA
:100CCC0083FB02135911D317CB1A642101FB03F3D5
:100CDC00D31A234A1360224B1B68002B02D1204BE2
:100CEC0001221A60022000F0FDF80346002B05D10A
:100CFC00022000F017F90346002B0BD0184B1B6891
:100D0C00013B174A1360164B1B68002B02D1144B86
:100D1C0063221A60002000F0E5F80346002B1AD07D
:100D2C000F4B01221A60FFF777FA124B01221A605F
:100D3C00114B01221A600C4B12221A600BE000BFFF
:100D4C000AE000BF08E000BF06E000BF04E000BFFF
:100D5C0002E000BF00E000BF00BF80BD6C000020BF
:100D6C00240000201C000020080000201F85EB51EF
:100D7C00200000205C0000206000002090B583B0B3
:100D8C0000AF0023FB7192E0FA79FB794C49895C46
:100D9C004C4AD154FA79FB794B49895C484AD15475
:100DAC00FB79002B09D1FC790121484801F01CF892
:100DBC0003461A46444B1A5525E0FB79012B09D101
:100DCC00FC790221414801F00FF803461A463E4BCC
:100DDC001A5518E0FB79022B09D1FC7910213B48FC
:100DEC0001F002F803461A46374B1A550BE0FB7913
:100DFC00032B08D1FC790121354800F0F5FF03469F
:100E0C001A46314B1A55FB792D4AD25CFB792E4987
:100E1C00CB5C9A4248D1FB79294AD25CFB792949AF
:100E2C00CB5C9A4240D1FB79264AD25CFB792949AA
:100E3C00CB5C9A421AD0FA79FB792249895C254A13
:100E4C00D154FB79234AD35C002B05D1FB79224A80
:100E5C00012142F8231027E0FB79204A002122F8D7
:100E6C001310FB791B4A0121D1541DE0FB79194A5F
:100E7C00D35C002B18D1FB79184A32F81330312B84
:100E8C0012D8FB79154A32F81320013291B2134A69
:100E9C0022F81310FB79114A32F81330322B03D19C
:100EAC00FB790F4A0121D154FB790133FB71FB799A
:100EBC00032B7FF669AF00BF00BF0C37BD4690BD5A
:100ECC0084000020880000208000002000080140E1
:100EDC00000C01408C0000207000002094000020C9
:100EEC009000002080B483B000AF0346FB71FB7907
:100EFC00032B01D900230DE0FB79094A52F823306A
:100F0C00012B06D1FB79064A002142F8231001235C
:100F1C0000E0002318460C37BD4680BC704700BF6C
:100F2C007000002080B483B000AF0346FB71FB79E6
:100F3C00032B01D9002310E0FB790A4AD35C012B67
:100F4C000AD1FB79074A0021D154FB79064A0021CA
:100F5C0022F81310012300E0002318460C37BD467D
:100F6C0080BC7047900000209400002080B500AF3A
:100F7C0000F046FC00F01EF800F04AF900F05CF8B6
:100F8C0000F01CF900F0A4F8084801F0C7FB0021A0
:100F9C00074801F06DFC322000F0D8FAFFF7C6F9D3
:100FAC00FFF702FBFFF7B8FBF8E700BF9C0000203F
:100FBC00E400002080B590B000AF07F118032822A0
:100FCC000021184602F0B8FB3B1D00221A605A6043
:100FDC009A60DA601A610223BB610123BB621023A1
:100FEC00FB6202237B630023BB634FF46013FB6340
:100FFC0007F11803184600F027FF0346002B01D019
:10100C0000F080F90F237B600223BB600023FB60A0
:10101C004FF480633B6100237B613B1D022118462A
:10102C0001F094F90346002B01D000F06BF900BFDE
:10103C004037BD4680BD000080B586B000AF07F1DB
:10104C00080300221A605A609A60DA603B4600225C
:10105C001A605A601D4B4FF080421A601B4B3F22A6
:10106C005A601A4B00229A60184B42F20F72DA60E7
:10107C00164B00221A61154B00229A61134801F09D
:10108C00FDFA0346002B01D000F03CF94FF48053DD
:10109C00BB6007F1080319460C4801F051FE0346EA
:1010AC00002B01D000F02EF900233B6000237B6065
:1010BC003B461946054802F0CFF90346002B01D0F8
:1010CC0000F020F900BF1837BD4680BD9C00002001
:1010DC0080B58EB000AF07F1280300221A605A6069
:1010EC009A60DA6007F1200300221A605A603B1DF7
:1010FC0000221A605A609A60DA601A615A619A6129
:10110C002C4B2D4A1A602B4B3F225A60294B002244
:10111C009A60284B40F6FF72DA60264B00221A6167
:10112C00244B00229A61234801F0A8FA0346002BB5
:10113C0001D000F0E7F84FF48053BB6207F12803AD
:10114C0019461C4801F0FCFD0346002B01D000F0B1
:10115C00D9F8184801F034FB0346002B01D000F0FD
:10116C00D1F800233B6200237B6207F12003194670
:10117C00104802F071F90346002B01D000F0C2F8C0
:10118C0060237B600023BB600023FB6000237B613A
:10119C003B1D00221946074801F014FD0346002BA5
:1011AC0001D000F0AFF8034800F01CF900BF38374D
:1011BC00BD4680BDE40000200004004080B500AFB7
:1011CC00114B124A1A60104B4FF4E1325A600E4B1D
:1011DC0000229A600C4B0022DA600B4B00221A6141
:1011EC00094B08225A61084B00229A61064B0022D7
:1011FC00DA61054802F0A0F90346002B01D000F09B
:10120C0081F800BF80BD00BF2C01002000440040CD
:10121C0080B586B000AF07F1080300221A605A604F
:10122C009A60DA602E4B9B692D4A43F0040393615C
:10123C002B4B9B6903F004037B607B68284B9B69F9
:10124C00274A43F008039361254B9B6903F008037D
:10125C003B603B6800224FF48761224800F0DBFDC5
:10126C0000224FF4A061204800F0D5FD1323BB6091
:10127C000023FB6001233B6107F1080319461A4860
:10128C0000F02EFC0123BB600023FB6001233B61BB
:10129C0007F108031946134800F022FC4FF487634A
:1012AC00BB600123FB6000233B6102237B6107F1E0
:1012BC00080319460B4800F013FC4FF4A063BB6005
:1012CC000123FB6000233B6102237B6107F10803D0
:1012DC001946054800F004FC00BF1837BD4680BD18
:1012EC0000100240000C01400008014080B582B0A3
:1012FC0000AF786000F096F9FFF740FD00BF0837AB
:10130C00BD4680BD80B400AF72B600BFFEE70000E2
:10131C0080B485B000AF154B9B69144A43F00103B0
:10132C009361124B9B6903F00103BB60BB680F4BCD
:10133C00DB690E4A43F08053D3610C4BDB6903F03D
:10134C0080537B607B680A4B5B68FB60FB6823F017
:10135C00E063FB60FB6843F00073FB60044AFB68CE
:10136C00536000BF1437BD4680BC7047001002406C
:10137C000000014080B584B000AF78607B681B68CA
:10138C00B3F1804F14D1154BDB69144A43F00103C0
:10139C00D361124BDB6903F00103FB60FB68002295
:1013AC0000211C2000F065FB1C2000F07EFB10E0EF
:1013BC007B681B680A4A93420BD1084BDB69074ACE
:1013CC0043F00203D361054BDB6903F00203BB60FE
:1013DC00BB6800BF1037BD4680BD00BF0010024087
:1013EC000004004080B588B000AF786007F11003AE
:1013FC0000221A605A609A60DA607B681B680F4A98
:10140C00934217D10E4B9B690D4A43F00403936131
:10141C000B4B9B6903F00403FB60FB6840233B61AF
:10142C0002237B610223FB6107F110031946054877
:10143C0000F056FB00BF2037BD4680BD00040040C5
:10144C00001002400008014080B588B000AF786001
:10145C0007F1100300221A605A609A60DA607B6808
:10146C001B681B4A93422FD11A4BDB69194A43F470
:10147C000033D361174BDB6903F40033FB60FB686B
:10148C00144B9B69134A43F004039361114B9B6902
:10149C0003F00403BB60BB6804233B6102237B6144
:1014AC000323FB6107F1100319460B4800F018FBEE
:1014BC0008233B6100237B610023BB6107F1100310
:1014CC001946054800F00CFB00BF2037BD4680BD17
:1014DC0000440040001002400008014080B400AFFE
:1014EC00FEE780B400AFFEE780B400AFFEE780B447
:1014FC0000AFFEE780B400AFFEE780B400AF00BFE2
:10150C00BD4680BC704780B400AF00BFBD4680BCF8
:10151C00704780B400AF00BFBD4680BC704780B53B
:10152C0000AF00F0B3F900BF80BD000080B500AF84
:10153C00024801F03FFA00BF80BD00BF9C000020B4
:10154C0080B400AF00BFBD4680BC704780B483B090
:10155C0000AF7860054A7B681360054B00221A6067
:10156C0000BF0C37BD4680BC704700BF7401002023
:10157C009001002080B483B000AF7860054A7B688E
:10158C001360054B00221A6000BF0C37BD4680BCAF
:10159C00704700BF780100209401002080B483B014
:1015AC0000AF7860054A7B681360054B00221A6017
:1015BC0000BF0C37BD4680BC704700BF7C010020CB
:1015CC009801002080B400AF044B00221A60044B39
:1015DC0000221A6000BFBD4680BC70477401002019
:1015EC009001002080B400AF044B00221A60044B21
:1015FC0000221A6000BFBD4680BC704778010020F5
:10160C009401002080B400AF044B00221A60044BFC
:10161C0000221A6000BFBD4680BC70477C010020D0
:10162C009801002080B400AF394B1B68002B0BDDF8
:10163C00374B1B68013B364A1360354B1B68002B3C
:10164C0002DC344B01221A60334B1B68002B0BDD80
:10165C00314B1B68013B304A13602F4B1B68002B2E
:10166C0002DC2E4B01221A602D4B1B68002B0BDD6C
:10167C002B4B1B68013B2A4A1360294B1B68002B20
:10168C0002DC284B01221A60274B1B68002B0BDD58
:10169C00254B1B68013B244A1360234B1B68002B12
:1016AC0002DC224B01221A60214B1B68002B0BDD44
:1016BC001F4B1B68013B1E4A13601D4B1B68002B04
:1016CC0002D11C4B01221A601B4B1B68002B0BDD3B
:1016DC00194B1B68013B184A1360174B1B68002BF6
:1016EC0002D1164B01221A60154B1B68002B0BDD27
:1016FC00134B1B68013B124A1360114B1B68002BE8
:10170C0002D1104B01221A6000BFBD4680BC70474D
:10171C00700100208C010020740100209001002039
:10172C0078010020940100207C0100209801002009
:10173C00800100209C01002084010020A0010020D9
:10174C0088010020A401002080B400AF064B1B6868
:10175C00012B04D1044B00221A60012300E000236A
:10176C001846BD4680BC70479001002080B400AF85
:10177C00064B1B68012B04D1044B00221A60012379
:10178C0000E000231846BD4680BC70479401002041
:10179C0080B400AF064B1B68012B04D1044B002214
:1017AC001A60012300E000231846BD4680BC704738
:1017BC00980100200C480D490D4A002302E0D45832
:1017CC00C4500433C4188C42F9D30A4A0A4C00237F
:1017DC0001E013600432A242FBD3FFF7B1FE01F02B
:1017EC0087FFFFF7C3FB7047000000203800002084
:1017FC009C37000838000020AC010020FEE70000F8
:10180C0080B500AF084B1B68074A43F01003136008
:10181C00032000F023F90F2000F008F8FFF778FD03
:10182C000023184680BD00BF0020024080B582B066
:10183C0000AF7860124B1A68124B1B7819464FF4A4
:10184C007A73B3FBF1F3B2FBF3F3184600F03BF9F8
:10185C000346002B01D001230EE07B680F2B0AD826
:10186C00002279684FF0FF3000F003F9064A7B68DC
:10187C001360002300E0012318460837BD4680BDE5
:10188C002C000020340000203000002080B400AF79
:10189C00054B1B781A46054B1B681344034A13600F
:1018AC0000BFBD4680BC704734000020A80100205A
:1018BC0080B400AF024B1B681846BD4680BC704715
:1018CC00A801002080B485B000AF78607B6803F07D
:1018DC000703FB600C4BDB68BB60BA684FF6FF0379
:1018EC001340BB60FB681A02BB68134343F0BF6331
:1018FC0043F40033BB60044ABB68D36000BF1437A9
:10190C00BD4680BC704700BF00ED00E080B400AF66
:10191C00044BDB681B0A03F007031846BD4680BC6A
:10192C00704700BF00ED00E080B483B000AF034609
:10193C00FB7197F90730002B0BDBFB7903F01F02CF
:10194C00064997F907305B09012000FA02F241F8C9
:10195C00232000BF0C37BD4680BC704700E100E07F
:10196C0080B483B000AF03463960FB7197F9073040
:10197C00002B0ADB3B68DAB20C4997F907301201ED
:10198C00D2B20B4483F800230AE03B68DAB2084970
:10199C00FB7903F00F03043B1201D2B20B441A760D
:1019AC0000BF0C37BD4680BC704700BF00E100E0B3
:1019BC0000ED00E080B489B000AFF860B9607A60E7
:1019CC00FB6803F00703FB61FB69C3F10703042BFE
:1019DC0028BF0423BB61FB690433062B02D9FB69C6
:1019EC00033B00E000237B614FF0FF32BB6902FA3E
:1019FC0003F3DA43BB681A407B699A404FF0FF311E
:101A0C007B6901FA03F3D9437B680B4013431846F7
:101A1C002437BD4680BC704780B582B000AF78607B
:101A2C007B68013BB3F1807F01D301230FE00A4AAD
:101A3C007B68013B53600F214FF0FF30FFF790FFA5
:101A4C00054B00229A60044B07221A6000231846AB
:101A5C000837BD4680BD00BF10E000E080B582B005
:101A6C0000AF78607868FFF72DFF00BF0837BD46E0
:101A7C0080BD80B586B000AF0346B9607A60FB7359
:101A8C0000237B61FFF742FF78617A68B968786957
:101A9C00FFF790FF024697F90F3011461846FFF7F3
:101AAC005FFF00BF1837BD4680BD80B582B000AF68
:101ABC000346FB7197F907301846FFF735FF00BF57
:101ACC000837BD4680BD80B582B000AF78607868BD
:101ADC00FFF7A2FF034618460837BD4680BD00003D
:101AEC0080B48BB000AF7860396000237B62002338
:101AFC003B6269E101227B6A02FA03F3FB613B68FA
:101B0C001B68FA691340BB61BA69FB699A4240F0E1
:101B1C0058813B685B689A4A93425ED0984A9342DC
:101B2C0075D8984A934258D0964A93426FD8964AA1
:101B3C00934252D0944A934269D8944A93424CD0DF
:101B4C00924A934263D8924A934246D0904A934227
:101B5C005DD8122B2AD8122B59D801A252F823F097
:101B6C00E71B0008C11B0008D31B0008151C00084C
:101B7C001B1C00081B1C00081B1C00081B1C00085D
:101B8C001B1C00081B1C00081B1C00081B1C00084D
:101B9C001B1C00081B1C00081B1C00081B1C00083D
:101BAC001B1C0008C91B0008DD1B0008794A934266
:101BBC0013D02CE03B68DB683B6229E03B68DB68B8
:101BCC0004333B6224E03B68DB6808333B621FE074
:101BDC003B68DB680C333B621AE03B689B68002B6C
:101BEC0002D104233B6213E03B689B68012B05D1B7
:101BFC0008233B627B68FA691A6109E008233B629F
:101C0C007B68FA695A6103E000233B6200E000BF85
:101C1C00BB69FF2B01D87B6801E07B6804337B61D7
:101C2C00BB69FF2B02D87B6A9B0002E07B6A083BF6
:101C3C009B003B617B691A680F213B6901FA03F336
:101C4C00DB431A40396A3B6901FA03F31A437B6997
:101C5C001A603B685B6803F08053002B00F0B18086
:101C6C004D4B9B694C4A43F0010393614A4B9B6972
:101C7C0003F00103BB60BB68484A7B6A9B080233D4
:101C8C0052F82330FB607B6A03F003039B000F22A6
:101C9C0002FA03F3DB43FA681340FB607B68404AAB
:101CAC00934213D07B683F4A93420DD07B683E4AE7
:101CBC00934207D07B683D4A934201D1032306E04F
:101CCC00042304E0022302E0012300E000237A6AEB
:101CDC0002F0030292009340FA681343FB602F4911
:101CEC007B6A9B080233FA6841F823203B685B68E7
:101CFC0003F48033002B06D02D4B1A682C49BB699A
:101D0C0013430B6006E02A4B1A68BB69DB43284976
:101D1C0013400B603B685B6803F40033002B06D068
:101D2C00234B5A682249BB6913434B6006E0204B96
:101D3C005A68BB69DB431E4913404B603B685B68C8
:101D4C0003F48013002B06D0194B9A681849BB6911
:101D5C0013438B6006E0164B9A68BB69DB4314494E
:101D6C0013408B603B685B6803F40013002B21D09D
:101D7C000F4BDA680E49BB691343CB6021E000BFFF
:101D8C000000321000003110000022100000211061
:101D9C000000121000001110001002400000014061
:101DAC0000080140000C01400010014000140140EB
:101DBC00000401400B4BDA68BB69DB430949134053
:101DCC00CB607B6A01337B623B681A687B6A22FAC0
:101DDC0003F3002B7FF48EAE00BF00BF2C37BD4643
:101DEC0080BC70470004014080B485B000AF7860BF
:101DFC000B467B807B689A687B881340002B02D053
:101E0C000123FB7301E00023FB73FB7B18461437A3
:101E1C00BD4680BC704780B483B000AF78600B4681
:101E2C007B8013467B707B78002B03D07A887B6891
:101E3C001A6103E07B881A047B681A6100BF0C37B7
:101E4C00BD4680BC7047000080B586B000AF78609E
:101E5C007B68002B01D1012372E27B681B6803F0C5
:101E6C000103002B00F08780924B5B6803F00C039E
:101E7C00042B0CD08F4B5B6803F00C03082B12D196
:101E8C008C4B5B6803F48033B3F5803F0BD1894BEB
:101E9C001B6803F40033002B6CD07B685B68002B51
:101EAC0068D101234CE27B685B68B3F5803F06D1B7
:101EBC00804B1B687F4A43F4803313602EE07B68B1
:101ECC005B68002B0CD17B4B1B687A4A23F4803364
:101EDC001360784B1B68774A23F4802313601DE052
:101EEC007B685B68B3F5A02F0CD1724B1B68714AF1
:101EFC0043F4802313606F4B1B686E4A43F48033AA
:101F0C0013600BE06B4B1B686A4A23F4803313603D
:101F1C00684B1B68674A23F4802313607B685B68FB
:101F2C00002B13D0FFF7C4FC386108E0FFF7C0FCAE
:101F3C0002463B69D31A642B01D9032300E25D4BA3
:101F4C001B6803F40033002BF0D014E0FFF7B0FC57
:101F5C00386108E0FFF7ACFC02463B69D31A642BEE
:101F6C0001D90323ECE1534B1B6803F40033002B22
:101F7C00F0D100E000BF7B681B6803F00203002B6C
:101F8C0063D04C4B5B6803F00C03002B0BD0494B1C
:101F9C005B6803F00C03082B1CD1464B5B6803F405
:101FAC008033002B16D1434B1B6803F00203002B2C
:101FBC0005D07B681B69012B01D00123C0E13D4B8F
:101FCC001B6823F0F8027B685B69DB00394913431B
:101FDC000B603AE07B681B69002B20D0364B01224A
:101FEC001A60FFF765FC386108E0FFF761FC0246F8
:101FFC003B69D31A022B01D90323A1E12D4B1B689A
:10200C0003F00203002BF0D02A4B1B6823F0F802DC
:10201C007B685B69DB00274913430B6015E0264B9B
:10202C0000221A60FFF744FC386108E0FFF740FC1F
:10203C0002463B69D31A022B01D9032380E11D4BC5
:10204C001B6803F00203002BF0D17B681B6803F0C4
:10205C000803002B3AD07B689B69002B19D0174BD7
:10206C0001221A60FFF724FC386108E0FFF720FC1E
:10207C0002463B69D31A022B01D9032360E10D4BB5
:10208C005B6A03F00203002BF0D0012000F0D8FAB9
:10209C001CE00A4B00221A60FFF70AFC38610FE0C3
:1020AC00FFF706FC02463B69D31A022B08D903231F
:1020BC0046E100BF00100240000042428004424250
:1020CC00924B5B6A03F00203002BE9D17B681B681F
:1020DC0003F00403002B00F0A6800023FB758B4B50
:1020EC00DB6903F08053002B0DD1884BDB69874AE9
:1020FC0043F08053D361854BDB6903F08053BB60A5
:10210C00BB680123FB75824B1B6803F48073002BA7
:10211C0018D17F4B1B687E4A43F480731360FFF722
:10212C00C7FB386108E0FFF7C3FB02463B69D31AD3
:10213C00642B01D9032303E1754B1B6803F48073F3
:10214C00002BF0D07B68DB68012B06D16F4B1B6A30
:10215C006E4A43F0010313622DE07B68DB68002BB1
:10216C000CD16A4B1B6A694A23F001031362674B5B
:10217C001B6A664A23F0040313621CE07B68DB686D
:10218C00052B0CD1614B1B6A604A43F004031362AC
:10219C005E4B1B6A5D4A43F0010313620BE05B4B21
:1021AC001B6A5A4A23F001031362584B1B6A574AA5
:1021BC0023F0040313627B68DB68002B15D0FFF758
:1021CC0077FB38610AE0FFF773FB02463B69D31AD1
:1021DC0041F28832934201D90323B1E04B4B1B6A85
:1021EC0003F00203002BEED014E0FFF761FB386123
:1021FC000AE0FFF75DFB02463B69D31A41F28832D5
:10220C00934201D903239BE0404B1B6A03F002036A
:10221C00002BEED1FB7D012B05D13C4BDB693B4AFE
:10222C0023F08053D3617B68DB69002B00F087803F
:10223C00364B5B6803F00C03082B61D07B68DB69C1
:10224C00022B46D1334B00221A60FFF731FB386169
:10225C0008E0FFF72DFB02463B69D31A022B01D98C
:10226C0003236DE0294B1B6803F00073002BF0D1A6
:10227C007B681B6AB3F5803F08D1244B5B6823F461
:10228C0000327B689B68214913434B601F4B5B6892
:10229C0023F474127B68196A7B685B6A0B431B49D5
:1022AC0013434B601B4B01221A60FFF701FB386193
:1022BC0008E0FFF7FDFA02463B69D31A022B01D95D
:1022CC0003233DE0114B1B6803F00073002BF0D08F
:1022DC0035E0104B00221A60FFF7EAFA386108E08B
:1022EC00FFF7E6FA02463B69D31A022B01D9032306
:1022FC0026E0064B1B6803F00073002BF0D11EE0A8
:10230C007B68DB69012B07D1012319E00010024027
:10231C0000700040600042420B4B5B68FB60FB6846
:10232C0003F480327B681B6A9A4206D1FB6803F483
:10233C0070127B685B6A9A4201D0012300E0002393
:10234C0018461837BD4680BD0010024080B584B0D9
:10235C0000AF786039607B68002B01D10123D0E09D
:10236C006A4B1B6803F007033A689A4210D9674B13
:10237C001B6823F0070265493B6813430B60634BF2
:10238C001B6803F007033A689A4201D00123B8E0B6
:10239C007B681B6803F00203002B20D07B681B6852
:1023AC0003F00403002B05D0594B5B68584A43F4E7
:1023BC00E06353607B681B6803F00803002B05D0B7
:1023CC00534B5B68524A43F460535360504B5B6809
:1023DC0023F0F0027B689B684D4913434B607B688C
:1023EC001B6803F00103002B40D07B685B68012B5A
:1023FC0007D1474B1B6803F40033002B15D1012385
:10240C007FE07B685B68022B07D1414B1B6803F0B4
:10241C000073002B09D1012373E03D4B1B6803F0C3
:10242C000203002B01D101236BE0394B5B6823F0D5
:10243C0003027B685B68364913434B60FFF738FA3D
:10244C00F8600AE0FFF734FA0246FB68D31A41F24F
:10245C008832934201D9032353E02D4B5B6803F080
:10246C000C027B685B689B009A42EBD1274B1B6884
:10247C0003F007033A689A4210D2244B1B6823F0EE
:10248C00070222493B6813430B60204B1B6803F087
:10249C0007033A689A4201D0012332E07B681B683B
:1024AC0003F00403002B08D0194B5B6823F4E062A3
:1024BC007B68DB68164913434B607B681B6803F031
:1024CC000803002B09D0124B5B6823F460527B6825
:1024DC001B69DB000E4913434B6000F021F80246E8
:1024EC000B4B5B681B0903F00F030A49CB5C22FA08
:1024FC0003F3094A1360094B1B681846FFF796F95A
:10250C00002318461037BD4680BD00BF0020024096
:10251C00001002407C3700082C0000203000002006
:10252C0090B48AB000AF294B3C1D0FCB84E80F0050
:10253C0040F201233B800023FB610023BB6100239D
:10254C007B6200237B6100233B62214B5B68FB6158
:10255C00FB6903F00C03042B02D0082B03D02BE0F7
:10256C001C4B3B622BE0FB699B0C03F00F032833E5
:10257C003B4413F8243C7B61FB6903F48033002B50
:10258C0012D0134B5B685B0C03F0010328333B4404
:10259C0013F8283CBB617B690E4A03FB02F2BB6952
:1025AC00B2FBF3F37B6204E07B690B4A02FB03F39F
:1025BC007B627B6A3B6202E0064B3B6200BF3B6A7C
:1025CC0018462837BD4690BC704700BF6C370008D2
:1025DC000010024000127A0000093D0080B400AFE8
:1025EC00024B1B681846BD4680BC70472C0000206F
:1025FC0080B500AFFFF7F2FF0246054B5B681B0A84
:10260C0003F007030349CB5C22FA03F3184680BDA1
:10261C00001002408C37000880B500AFFFF7DEFFDA
:10262C000246054B5B68DB0A03F007030349CB5CEE
:10263C0022FA03F3184680BD001002408C370008C4
:10264C0080B485B000AF78600A4B1B680A4AA2FBC5
:10265C0003235B0A7A6802FB03F3FB6000BFFB6891
:10266C005A1EFA60002BF9D100BF00BF1437BD46CB
:10267C0080BC70472C000020D34D621080B582B016
:10268C0000AF78607B68002B01D1012341E07B68AF
:10269C0093F83D30DBB2002B06D17B68002283F827
:1026AC003C207868FEF766FE7B68022283F83D20AA
:1026BC007B681A687B6804331946104600F028FCC6
:1026CC007B68012283F846207B68012283F83E2038
:1026DC007B68012283F83F207B68012283F840202D
:1026EC007B68012283F841207B68012283F8422019
:1026FC007B68012283F843207B68012283F8442005
:10270C007B68012283F845207B68012283F83D20F9
:10271C00002318460837BD4680BD000080B485B044
:10272C0000AF78607B6893F83D30DBB2012B01D0B1
:10273C0001233AE07B68022283F83D207B681B680A
:10274C00DA687B681B6842F00102DA607B681B6800
:10275C00184A93420ED07B681B68B3F1804F09D0A6
:10276C007B681B68144A934204D07B681B68134A2D
:10277C00934211D17B681B689B6803F00703FB60D5
:10278C00FB68062B10D07B681B681A687B681B687B
:10279C0042F001021A6007E07B681B681A687B68CC
:1027AC001B6842F001021A60002318461437BD461C
:1027BC0080BC7047002C0140000400400008004021
:1027CC0080B582B000AF78607B68002B01D101230B
:1027DC0041E07B6893F83D30DBB2002B06D17B687F
:1027EC00002283F83C20786800F039F87B680222DC
:1027FC0083F83D207B681A687B68043319461046C1
:10280C0000F086FB7B68012283F846207B6801225E
:10281C0083F83E207B68012283F83F207B680122ED
:10282C0083F840207B68012283F841207B680122D9
:10283C0083F842207B68012283F843207B680122C5
:10284C0083F844207B68012283F845207B680122B1
:10285C0083F83D20002318460837BD4680BD80B460
:10286C0083B000AF786000BF0C37BD4680BC7047AA
:10287C0080B584B000AF786039603B68002B09D11B
:10288C007B6893F83E30DBB2012B14BF012300238D
:10289C00DBB222E03B68042B09D17B6893F83F3014
:1028AC00DBB2012B14BF01230023DBB215E03B6824
:1028BC00082B09D17B6893F84030DBB2012B14BF95
:1028CC0001230023DBB208E07B6893F84130DBB2D4
:1028DC00012B14BF01230023DBB2002B01D00123F9
:1028EC005EE03B68002B04D17B68022283F83E201B
:1028FC0013E03B68042B04D17B68022283F83F2051
:10290C000BE03B68082B04D17B68022283F8402043
:10291C0003E07B68022283F841207B681B6801225C
:10292C003968184600F074FD7B681B681E4A934298
:10293C0007D17B681B685A6C7B681B6842F40042A9
:10294C005A647B681B68184A93420ED07B681B68DC
:10295C00B3F1804F09D07B681B68144A934204D0B2
:10296C007B681B68124A934211D17B681B689B6879
:10297C0003F00703FB60FB68062B10D07B681B6819
:10298C001A687B681B6842F001021A6007E07B68DA
:10299C001B681A687B681B6842F001021A600023EE
:1029AC0018461037BD4680BD002C01400004004085
:1029BC000008004080B582B000AF78607B681B686F
:1029CC001B6903F00203022B22D17B681B68DB68B6
:1029DC0003F00203022B1BD17B681B686FF0020211
:1029EC001A617B6801221A777B681B689B6903F06C
:1029FC000303002B03D0786800F06FFA05E07868C9
:102A0C0000F062FA786800F071FA7B6800221A779D
:102A1C007B681B681B6903F00403042B22D17B68C1
:102A2C001B68DB6803F00403042B1BD17B681B6859
:102A3C006FF004021A617B6802221A777B681B68AC
:102A4C009B6903F44073002B03D0786800F045FABF
:102A5C0005E0786800F038FA786800F047FA7B688F
:102A6C0000221A777B681B681B6903F00803082B8C
:102A7C0022D17B681B68DB6803F00803082B1BD191
:102A8C007B681B686FF008021A617B6804221A7756
:102A9C007B681B68DB6903F00303002B03D07868A9
:102AAC0000F01BFA05E0786800F00EFA786800F088
:102ABC001DFA7B6800221A777B681B681B6903F080
:102ACC001003102B22D17B681B68DB6803F010030A
:102ADC00102B1BD17B681B686FF010021A617B688E
:102AEC0008221A777B681B68DB6903F44073002BA0
:102AFC0003D0786800F0F1F905E0786800F0E4F9AB
:102B0C00786800F0F3F97B6800221A777B681B6801
:102B1C001B6903F00103012B0ED17B681B68DB687A
:102B2C0003F00103012B07D17B681B686FF00102D6
:102B3C001A617868FEF7DAFB7B681B681B6903F087
:102B4C008003802B0ED17B681B68DB6803F080034D
:102B5C00802B07D17B681B686FF080021A61786844
:102B6C0000F0E1FC7B681B681B6903F04003402B01
:102B7C000ED17B681B68DB6803F04003402B07D148
:102B8C007B681B686FF040021A61786800F0B7F937
:102B9C007B681B681B6903F02003202B0ED17B681C
:102BAC001B68DB6803F02003202B07D17B681B68B4
:102BBC006FF020021A61786800F0ACFC00BF083797
:102BCC00BD4680BD80B584B000AFF860B9607A6056
:102BDC00FB6893F83C30012B01D10223ACE0FB687D
:102BEC00012283F83C207B680C2B00F29F8001A211
:102BFC0052F823F0352C0008392D0008392D000827
:102C0C00392D0008752C0008392D0008392D0008C5
:102C1C00392D0008B72C0008392D0008392D000873
:102C2C00392D0008F72C0008FB681B68B96818469A
:102C3C0000F0D0F9FB681B689A69FB681B6842F0CE
:102C4C0008029A61FB681B689A69FB681B6822F092
:102C5C0004029A61FB681B689969BB681A69FB6876
:102C6C001B680A439A6162E0FB681B68B9681846E6
:102C7C0000F016FAFB681B689A69FB681B6842F443
:102C8C0000629A61FB681B689A69FB681B6822F4F6
:102C9C0080629A61FB681B689969BB681B691A02A0
:102CAC00FB681B680A439A6141E0FB681B68B968C2
:102CBC00184600F05FFAFB681B68DA69FB681B6852
:102CCC0042F00802DA61FB681B68DA69FB681B6872
:102CDC0022F00402DA61FB681B68D969BB681A69C7
:102CEC00FB681B680A43DA6121E0FB681B68B96862
:102CFC00184600F0A9FAFB681B68DA69FB681B68C8
:102D0C0042F40062DA61FB681B68DA69FB681B68D5
:102D1C0022F48062DA61FB681B68D969BB681B69A5
:102D2C001A02FB681B680A43DA6100E000BFFB680B
:102D3C00002283F83C20002318461037BD4680BD86
:102D4C0080B584B000AF786039607B6893F83C3014
:102D5C00012B01D10223B3E07B68012283F83C20D4
:102D6C007B68022283F83D207B681B689B68FB60B4
:102D7C00FB6823F07703FB60FB6823F47F43FB6065
:102D8C007B681B68FA689A603B681B68B3F5005F48
:102D9C003ED0B3F5005F00F28780B3F5805F00F0A2
:102DAC008580B3F5805F7FD8702B1AD0702B7BD8C1
:102DBC00602B50D0602B77D8502B3CD0502B73D835
:102DCC00402B58D0402B6FD8302B64D0302B6BD885
:102DDC00202B60D0202B67D8002B5CD0102B5AD026
:102DEC0062E07B6818683B6899683B685A683B6886
:102DFC00DB6800F0EEFA7B681B689B68FB60FB6885
:102E0C0043F07703FB607B681B68FA689A604EE0BE
:102E1C007B6818683B6899683B685A683B68DB6854
:102E2C0000F0D7FA7B681B689A687B681B6842F4D1
:102E3C0080429A603BE07B6818683B6859683B6845
:102E4C00DB681A4600F04EFA7B681B685021184666
:102E5C0000F0A5FA2BE07B6818683B6859683B6862
:102E6C00DB681A4600F06CFA7B681B686021184618
:102E7C0000F095FA1BE07B6818683B6859683B6862
:102E8C00DB681A4600F02EFA7B681B684021184656
:102E9C0000F085FA0BE07B681A683B681B681946E2
:102EAC00104600F07CFA02E000BF00E000BF7B6837
:102EBC00012283F83D207B68002283F83C2000230C
:102ECC0018461037BD4680BD80B483B000AF786023
:102EDC0000BF0C37BD4680BC704780B483B000AFD8
:102EEC00786000BF0C37BD4680BC704780B483B09F
:102EFC0000AF786000BF0C37BD4680BC704780B413
:102F0C0083B000AF786000BF0C37BD4680BC704703
:102F1C0080B485B000AF786039607B681B68FB605B
:102F2C007B68294A93420BD07B68B3F1804F07D062
:102F3C007B68264A934203D07B68254A934208D18A
:102F4C00FB6823F07003FB603B685B68FA68134313
:102F5C00FB607B681C4A93420BD07B68B3F1804FBB
:102F6C0007D07B68194A934203D07B68184A934276
:102F7C0008D1FB6823F44073FB603B68DB68FA689C
:102F8C001343FB60FB6823F080023B685B691343CF
:102F9C00FB607B68FA681A603B689A687B68DA6247
:102FAC003B681A687B689A627B68074A934203D134
:102FBC003B681A697B681A637B6801225A6100BFFF
:102FCC001437BD4680BC7047002C01400004004003
:102FDC000008004080B487B000AF786039607B682F
:102FEC001B6A23F001027B681A627B681B6A7B6197
:102FFC007B685B683B617B689B69FB60FB6823F0CB
:10300C007003FB60FB6823F00303FB603B681B68E9
:10301C00FA681343FB607B6923F002037B613B6816
:10302C009B687A6913437B617B681C4A93420CD181
:10303C007B6923F008037B613B68DB687A69134387
:10304C007B617B6923F004037B617B68134A9342A9
:10305C0011D13B6923F480733B613B6923F400730A
:10306C003B613B685B693A6913433B613B689B6915
:10307C003A6913433B617B683A695A607B68FA682A
:10308C009A613B685A687B685A637B687A691A62F2
:10309C0000BF1C37BD4680BC704700BF002C0140F0
:1030AC0080B487B000AF786039607B681B6A23F00E
:1030BC0010027B681A627B681B6A7B617B685B68A9
:1030CC003B617B689B69FB60FB6823F4E043FB601E
:1030DC00FB6823F44073FB603B681B681B02FA68B7
:1030EC001343FB607B6923F020037B613B689B6887
:1030FC001B017A6913437B617B681D4A93420DD196
:10310C007B6923F080037B613B68DB681B017A6978
:10311C0013437B617B6923F040037B617B68144A1A
:10312C00934213D13B6923F480633B613B6923F4E5
:10313C0000633B613B685B699B003A6913433B61ED
:10314C003B689B699B003A6913433B617B683A6916
:10315C005A607B68FA689A613B685A687B689A6324
:10316C007B687A691A6200BF1C37BD4680BC704709
:10317C00002C014080B487B000AF786039607B6868
:10318C001B6A23F480727B681A627B681B6A7B6102
:10319C007B685B683B617B68DB69FB60FB6823F0E9
:1031AC007003FB60FB6823F00303FB603B681B6848
:1031BC00FA681343FB607B6923F400737B613B6803
:1031CC009B681B027A6913437B617B681D4A93429F
:1031DC000DD17B6923F400637B613B68DB681B02C8
:1031EC007A6913437B617B6923F480637B617B6821
:1031FC00144A934213D13B6923F480533B613B69DE
:10320C0023F400533B613B685B691B013A69134330
:10321C003B613B689B691B013A6913433B617B68CB
:10322C003A695A607B68FA68DA613B685A687B686D
:10323C00DA637B687A691A6200BF1C37BD4680BCB2
:10324C00704700BF002C014080B487B000AF78609D
:10325C0039607B681B6A23F480527B681A627B6836
:10326C001B6A3B617B685B687B617B68DB69FB602D
:10327C00FB6823F4E043FB60FB6823F44073FB60C2
:10328C003B681B681B02FA681343FB603B6923F421
:10329C0000533B613B689B681B033A6913433B61DA
:1032AC007B680F4A934209D17B6923F480437B618D
:1032BC003B685B699B017A6913437B617B687A6924
:1032CC005A607B68FA68DA613B685A687B681A64F2
:1032DC007B683A691A6200BF1C37BD4680BC7047D8
:1032EC00002C014080B487B000AFF860B9607A6000
:1032FC00FB681B6A7B61FB681B6A23F00102FB689D
:10330C001A62FB689B693B613B6923F0F0033B61EC
:10331C007B681B013A6913433B617B6923F00A0309
:10332C007B617A69BB6813437B61FB683A699A617C
:10333C00FB687A691A6200BF1C37BD4680BC7047B7
:10334C0080B487B000AFF860B9607A60FB681B6A24
:10335C0023F01002FB681A62FB689B697B61FB68B7
:10336C001B6A3B617B6923F470437B617B681B03A5
:10337C007A6913437B613B6923F0A0033B61BB6813
:10338C001B013A6913433B61FB687A699A61FB68DC
:10339C003A691A6200BF1C37BD4680BC704780B4C6
:1033AC0085B000AF786039607B689B68FB60FB6818
:1033BC0023F07003FB603A68FB68134343F0070388
:1033CC00FB607B68FA689A6000BF1437BD4680BC0E
:1033DC00704780B487B000AFF860B9607A603B602A
:1033EC00FB689B687B617B6923F47F437B613B6853
:1033FC001A027B681A43BB6813437A6913437B61D7
:10340C00FB687A699A6000BF1C37BD4680BC704768
:10341C0080B487B000AFF860B9607A60BB6803F025
:10342C001F03012202FA03F37B61FB681A6A7B69B2
:10343C00DB431A40FB681A62FB681A6ABB6803F02C
:10344C001F03796801FA03F31A43FB681A6200BF81
:10345C001C37BD4680BC704780B485B000AF786027
:10346C0039607B6893F83C30012B01D1022346E094
:10347C007B68012283F83C207B68022283F83D2084
:10348C007B681B685B68FB607B681B689B68BB6028
:10349C00FB6823F07003FB603B681B68FA681343FE
:1034AC00FB607B681B68FA685A607B681B68164A6D
:1034BC0093420ED07B681B68B3F1804F09D07B68B8
:1034CC001B68124A934204D07B681B68104A9342D3
:1034DC000CD1BB6823F08003BB603B685B68BA68A7
:1034EC001343BB607B681B68BA689A607B680122D7
:1034FC0083F83D207B68002283F83C20002318468B
:10350C001437BD4680BC7047002C014000040040BD
:10351C000008004080B483B000AF786000BF0C3767
:10352C00BD4680BC704780B483B000AF786000BFEC
:10353C000C37BD4680BC704780B582B000AF786058
:10354C007B68002B01D101233FE07B6893F83D3071
:10355C00DBB2002B06D17B68002283F83C20786814
:10356C00FDF772FF7B68242283F83D207B681B6883
:10357C00DA687B681B6822F40052DA60786800F025
:10358C0029F87B681B681A697B681B6822F49042D7
:10359C001A617B681B685A697B681B6822F02A02D7
:1035AC005A617B681B68DA687B681B6842F40052BE
:1035BC00DA607B6800221A647B68202283F83D2045
:1035CC007B68202283F83E20002318460837BD462E
:1035DC0080BD000080B584B000AF78607B681B684C
:1035EC001B6923F440517B68DA687B681B680A43CB
:1035FC001A617B689A687B681B691A437B685B69F4
:10360C001343BB607B681B68DB6823F4B05323F067
:10361C000C037A681268B9680B43D3607B681B682B
:10362C005B6923F440717B689A697B681B680A4369
:10363C005A617B681B682C4A934203D1FEF7ECFF5E
:10364C00F86002E0FEF7D4FFF860FA6813469B00BE
:10365C0013449A001A447B685B689B00B2FBF3F33B
:10366C00224AA2FB03235B091901FA6813469B004B
:10367C0013449A001A447B685B689B00B2FBF3F21C
:10368C001A4BA3FB02035B09642000FB03F3D31A60
:10369C001B013233154AA2FB03235B0903F0F00331
:1036AC001944FA6813469B0013449A001A447B6829
:1036BC005B689B00B2FBF3F20C4BA3FB02035B09B0
:1036CC00642000FB03F3D31A1B013233074AA2FB1D
:1036DC0003235B0903F00F027B681B680A449A60A2
:1036EC0000BF1037BD4680BD003801401F85EB512F
:1036FC0070B500260C4D0D4C641BA410A64209D1CC
:10370C0000F022F800260A4D0A4C641BA410A642B5
:10371C0005D170BD55F8043B98470136EEE755F8D6
:10372C00043B98470136F2E79437000894370008B9
:10373C00943700089837000803460244934200D19E
:10374C00704703F8011BF9E7F8B500BFF8BC08BCDB
:10375C009E467047F8B500BFF8BC08BC9E46704743
:10376C0002030405060708090A0B0C0D0E0F1010B6
:10377C000000000000000000010203040607080915
:08378C0000000000010203042B
:0437940031010008F7
:043798000D01000817
:10379C00010000000100000012000000F401000014
:1037AC00C80000002C010000F4010000C80000005B
:1037BC002C01000001000000150000000024F400A2
:0837CC001000000001000000E4
:04000005080017C117
:00000001FF
